:020000040800F2
:10000000B004002005010008C31A0008EF1600081C
:10001000C11A0008A7070008491C000800000000DA
:10002000000000000000000000000000C71A0008E7
:10003000A907000800000000C51A0008C91A000836
:100040001F0100081F0100081F0100081F01000810
:100050001F0100081F0100081F0100081F01000800
:100060001F0100081F0100081F0100081F010008F0
:100070001F0100081F0100081F0100081F010008E0
:100080001F0100081F0100081F0100081F010008D0
:100090001F0100081F0100081F0100081F010008C0
:1000A0001F0100081F0100081F0100081F010008B0
:1000B0001F0100081F0100081F0100081F010008A0
:1000C0001F0100081F0100081F0100081F01000890
:1000D0001F0100081F0100081F0100081F01000880
:1000E0001F0100081F0100081F010008DFF810D0E1
:1000F00000F026FB0048004751250008AFF30080C0
:10010000B00400200648804706480047FEE7FEE7A7
:10011000FEE7FEE7FEE7FEE7FEE7FEE7FEE7FEE7B7
:100120002B1B0008ED000008202A04DB203A21FAEE
:1001300002F00021704721FA02F3D040C2F1200200
:100140009140084319467047D2B201E000F8012BF4
:10015000491EFBD270470022F6E710B513460A4647
:1001600004461946FFF7F0FF204610BD70B521F098
:10017000004303430CD0C1F30A550024D5EB04051A
:1001800064EB0403D617AD1AB34102DB002001462D
:1001900070BD201841EB025170BD0EB5C10F80EA51
:1001A000E0700844CA07002140F233438DE80E0096
:1001B0000A460B4600F0BEF803B000BD00F0004256
:1001C00030F000400AD0C10D01F56071C0F3160097
:1001D00042EA0151C208400711437047002001461E
:1001E000704701F0004330B421F0004150EA0102B1
:1001F00006D00A0DA2F56072C1F31301002A02DCD9
:1002000030BC00207047440F44EAC104C100E0182C
:1002100030BC00EBC25000F047B830B50B46014689
:1002200000202022012409E021FA02F59D4205D395
:1002300003FA02F5491B04FA02F52844151EA2F13F
:100240000102F1DC30BD2DE9F05F05460020924649
:100250009B4688460646814640241BE02846414688
:1002600047462246FFF760FF53465A46C01A91415F
:1002700010D311461846224600F074FA2D1A67EB87
:1002800001084F4622460120002100F06BFA17EBCF
:1002900000094E41201EA4F10104DFDC484631462E
:1002A0002A464346BDE8F09F0029A8BF7047401C7E
:1002B000490008BF20F00100704710B4B0FA80FC7C
:1002C00000FA0CF050EA010404BF10BC704749B1B9
:1002D000CCF1200421FA04F411FA0CF118BF012129
:1002E00021430843A3EB0C01CB1D4FEA00614FEA09
:1002F000102042BF002010BC704700EBC3501044D8
:100300000029A4BF10BC7047401C490008BF20F062
:10031000010010BC704710B5141E73F1000408DA18
:10032000401C41F1000192185B411A4301D120F0B9
:10033000010010BD2DE9F04D92469B4611B1B1FA76
:1003400081F202E0B0FA80F22032904600F00AFA20
:1003500004460F4640EA0A0041EA0B0153465A465A
:10036000084313D0114653EA010019D0C8F14002E6
:100370005046FFF7D9FE05460E46504659464246BE
:1003800000F0F0F9084305D0012004E0204639468A
:10039000BDE8F08D0020054346EAE0762C43374364
:1003A0000A986305E40AA0EB08000022FD0A44EA6B
:1003B00047540A3002D500200146E9E7010510192B
:1003C0006941DDE9084500196941BDE8F04DA2E742
:1003D0002DE9FE4F804681EA0300C00F0C460090D5
:1003E00021F0004123F00045B8EB0200A94105D2FD
:1003F0004046214690461C460B46024623F00040EC
:10040000104347D0270DC7F30A00C3F30A510290E7
:10041000401A019040286BDAC3F3130040F4801BAC
:100420000098924620B10023D2EB030A63EB0B0B3A
:1004300001985946C0F14002504600F093F9064633
:100440000D4650465946019A00F09BF910EB080002
:100450006141002487EA115284EAE7731A4340D0CD
:10046000009A62B3019A012A4FEA075215DC001B79
:1004700061EB02014FF0004202EA0752CDE900426F
:10048000001C41F5801132462B46FFF753FF03B0A5
:10049000BDE8F08F40462146F9E7001B61EB020101
:1004A000001C41F5801300185B412018A2F50017CD
:1004B00047EB030140EAD570B6196D4111E06D08B4
:1004C0004FEA360645EAC0754FEA0752001B61EB5A
:1004D0000201001C41F5801149084FEA3000001963
:1004E000514132462B4603B0BDE8F04FFFF713BF32
:1004F0000098012240000023D0EB020263EBE0737E
:10050000009821464FEAE074B8EB000061EB04016B
:10051000E9E783F000435BE781F0004158E72DE90C
:10052000FE4F81EA030404F0004421F000410094EE
:100530004FF0000B23F0004350EA01045ED052EA72
:1005400003045BD0C3F30A54C1F30A552C44A4F24C
:10055000F3340194A0FB0254C1F3130141F4801160
:10056000C3F3130343F4801301FB024400FB034E67
:10057000840A970A44EA815447EA8357A4FB076830
:1005800002958D0A05FB07854FEA932C04FB0C545A
:100590002705029D4FEA065847EA1637B5EB0805CE
:1005A0006EEB070C870E920E47EA811742EA831220
:1005B000A7FB0201B6EB0B0164EB00042B0D43EA31
:1005C0000C335E1844EB1C50DA465146E7FB02013F
:1005D000C5F313044FEA0B3343EA14534FEA0432D2
:1005E000019C43EA0603A4F10C040294009CCDE9AB
:1005F00000B4FFF79FFE03B0BDE8F08F0020014676
:10060000F9E72DE9F04D81EA030404F0004B21F0F5
:10061000004514464FF0000A23F0004150EA05025D
:1006200020D054EA01021DD0C5F30A570246C5F393
:100630001303C1F31300C1F30A5640F4801543F4C9
:100640008013A7EB0608101BD64608F2FD3873EBA3
:10065000050002D308F1010801E092185B41B8F1EE
:10066000000F03DA00200146BDE8F08D00204FF4B2
:100670008011064684460EE0171B73EB050705D371
:10068000121B63EB050306434CEA010C49084FEAD1
:10069000300092185B4150EA0107EDD152EA0300A5
:1006A00012D082EA040083EA0501084305D0101B3A
:1006B000AB4106D20122002306E000224FF00043A6
:1006C00002E06FF0010253101AEB06004CEB0851E8
:1006D00010EB0A0041EB0B01BDE8F04DFFF71BBE2C
:1006E000C1F30A52C1F3130140F2FF3341F4801108
:1006F0009A4202DA00200146704740F233439A42A0
:10070000A2F2334202DC5242FFF70EBD00F02AB8DB
:1007100030B5041E71F1000404DB4FF00044404288
:1007200064EB0101141E73F1000405DB1C464FF05D
:100730000043524263EB0403994208BF904230BD2C
:10074000064C074D06E0E06840F0010394E807001E
:1007500098471034AC42F6D3FFF7CCFC682700086A
:1007600088270008202A04DB203A00FA02F1002042
:1007700070479140C2F1200320FA03F319439040DF
:100780007047202A06DBCB17203A41FA02F043EAF1
:10079000E07306E041FA02F3D040C2F1200291403A
:1007A000084319467047FEE77047000070B50446DD
:1007B00000F0FEF80546601C02D0044800780444AE
:1007C00000F0F6F8401BA042FAD370BD00000020F4
:1007D0002DE9F84FDFF8B891002409F1040A0AF175
:1007E000040B23460F270BF1040EC9E00125A54099
:1007F0002A40AA427DD1674ED1F804C0ACEB06086E
:10080000B44532D014DCBCF1030F3AD009DCBCF1A2
:10081000000F2AD0BCF1010F1CD0BCF1020F31D166
:100820001DE0BCF1110F17D0BCF1120F2AD119E055
:10083000B8F5881F19D006DCB8F5803F15D0B8F59B
:10084000801F1FD111E0B8F5001F0ED0B8F5041FAE
:1008500018D10AE0CB6815E0CB681B1D12E0CB680D
:1008600008330FE0CB680C330CE08B682BB1012B05
:100870004FF0080303D0456104E0042302E0056162
:1008800000E00023FF2A01D8064601E000F104063B
:100890004FEA840501D9A5F12005D6F8008007FAB2
:1008A00005FC28EA0C0803FA05F548EA0508C6F82D
:1008B00000804D68ED0062D5374DAE6946F0010607
:1008C000AE61AD6924F0030605F001050095334DD6
:1008D00006EB050CDCF80850A607360F07FA06F8F9
:1008E00025EA0805DFF8B880404503D14FF000083D
:1008F00017E044E0DFF8AC80404502D14FF001083A
:100900000FE0DFF8A480404502D14FF0020808E074
:10091000DFF89880404502D14FF0030801E04FF026
:10092000040808FA06F848EA0508CCF808804D687B
:10093000D9F80060ED034D4601D5164300E096431B
:100940002E604D68DAF80060AD03554601D51643B8
:1009500000E096432E604D68DBF80060ED025D46D6
:1009600001D5164300E096432E604D68DEF8006026
:10097000AD02754601D5164300E096432E60641C17
:100980000D682A46E5407FF431AFBDE8F88F0000DE
:10099000000401400000111000100240000001405E
:1009A00000080140000C014000100140001401400B
:1009B00001488068704700000000002070B5040006
:1009C00025D094F83D00002520B984F83C502046FD
:1009D00000F078FA242084F83D002068016821F0B6
:1009E000010101602068016841F400410160206854
:1009F000016821F40041016000F0BCFB4D4A6168D0
:100A0000914201D84C4900E04C49884201D2012072
:100A100070BD4B492368B0FBF1F15E6826F03F06DC
:100A20000E435E606368934206D94FF49673594350
:100A30004FF47A73B1FBF3F12368491C1E6A26F068
:100A40003F06314319626168914210D84900401E47
:100A5000B0FBF1F2521CC2F30B02042A01D20420B3
:100A600022E0B0FBF1F0401CC0F30B001CE0A268D8
:100A7000F2B301EBC10303EB0116431EB3FBF6F324
:100A80005B1C43F480431B0549D092B301EBC102C8
:100A900002EB0111401EB0FBF1F0401CC0F30B0053
:100AA00040F4804040F400402168CA694CF6FF736E
:100AB0009A431043C861D4E90710014320680268D3
:100AC00022F0C00211430160D4E903010143206810
:100AD000826848F2FF339A4311438160D4E90501EB
:100AE00008432168CA6822F0FF021043C86001E091
:100AF0000EE016E02068016841F001010160256404
:100B0000202084F83D00256384F83E50002070BD0D
:100B100001EB4106431EB3FBF6F35B1CB3E7012078
:100B2000C2E701EB4101401EB0FBF1F0401CC0F3F5
:100B30000B00B7E7A086010080841E0000093D007D
:100B400040420F002DE9FF4F83B00025DDE9107909
:100B50009A4693460446DDF848800095FFF728FF43
:100B6000064694F83D0020287CD1192301228549AE
:100B70002046009600F0CCFE0028F5D194F83C0009
:100B800001286FD0012084F83C0020680168C90763
:100B900003D1016841F0010101602068016821F47E
:100BA00000610160222084F83D00402084F83E006E
:100BB00025646762A4F82A90608D20857248E062FF
:100BC000CDE9008653465A462046049900F0A8FD18
:100BD00000287DD1208DDFF8B491202768B101284D
:100BE00014D00228206801681ED041F480610160A1
:100BF0002068416980690090B6E020684169816998
:100C00000091016841F400710160ADE02068016865
:100C100021F48061016072B62068416981690091A8
:100C2000016841F400710AE041F40061016072B6AC
:100C30002068416981690091016821F48061016047
:100C400062B691E0032868D801280CD002284346F8
:100C50004FF000024946204600960FD000F058FEA3
:100C6000B0BB10E08BE032464146204600F0CFFE9C
:100C700070BB20680069616A08706CE000F048FE93
:100C800030BB72B634E02068016821F480610160F5
:100C900072B620680069616A0870606A401C606210
:100CA000208D401E2085608D401E6085384846F2AC
:100CB000A8110068B0FBF1F0C0EBC00000EB8000B1
:100CC0000090401E009008D020684069C04300E0BA
:100CD00029E040070CD50098F3E744F8305F6773CC
:100CE000A573206940F02000206162B625731AE0E8
:100CF0002068016841F40071016020680069616A40
:100D00000870606A401C6062218D491E2185618DDA
:100D1000491E618562B621681BE032464146204685
:100D200000F075FE18B1012007B0BDE8F08F206813
:100D30000069616A0870606A401C6062218D491E0A
:100D40002185618D491E618521684A69D243520718
:100D50000AD409690170606A401C6062208D401EDF
:100D60002085608D401E6085208D00287FF46AAF4D
:100D700084F83D7084F83E5084F83C50D4E702205B
:100D8000D2E70000020010000000FFFF0400010095
:100D90000C0000202DE9FF4F83B09A46DDE9119742
:100DA00093460446DDF84080FFF702FE054694F8BE
:100DB0003D0020287FD1192301224049204600957B
:100DC00000F0A6FD002876D194F83C00012872D0EE
:100DD000012084F83C0020680168C90703D101683C
:100DE00041F0010101602068016821F400610160A7
:100DF000212084F83D00402084F83E00002626642F
:100E0000C4F82480A4F82A90608D20852C48E062E4
:100E1000CDE9007553465A462046049900F0FEFC81
:100E200070B930E02A463946204600F023FE58B11A
:100E3000206C042804D12068016841F4007101602D
:100E4000012007B0BDE8F08F606A21680078086172
:100E5000606A401C6062218D491E89B22185628DC5
:100E6000521E628522685369DB435B070BD469B16C
:100E700000781061606A401C6062208D401E2085F1
:100E8000608D401E6085208D0028CBD12A463946D2
:100E9000204600F017FD0028CAD154F83D0B016828
:100EA00041F400710160202004F81E09E67766779E
:100EB0000020C6E7FFE70220C3E7000002001000A1
:100EC0000000FFFF10B586B0002100910191029152
:100ED000039100681349884222D1134CA06940F065
:100EE0000800A061A069694600F0080004904FF472
:100EF0004070009012200190032003900B48FFF7F0
:100F000067FC0B48416841F0E06141F0020141603B
:100F1000E06940F40010E061E06900F40010049022
:100F200006B010BD0054004000100240000C01400B
:100F300000000140024881680278114481607047D6
:100F400000000020074810B5016841F01001016061
:100F5000032000F067F80F2000F006F800F024F8F6
:100F6000002010BD0020024070B50D4D04464FF426
:100F70007A712878B1FBF0F00A490968B1FBF0F00A
:100F800000F0DEFA48B9102C07D200222146501E8C
:100F900000F028F800206C6070BD012070BD0000DA
:100FA000000000200C0000200C4808B5816941F0C9
:100FB00001018161816901F001010091C16941F084
:100FC0008051C161C06900F08050009004484168C0
:100FD00021F0E06141F08061416008BD00100240F5
:100FE00000000140F0B40E4B1B680C46C3F3022313
:100FF000C3F10705042D00D90425191D072901D2C5
:10100000002300E0DB1E012606FA05F1491E2140FF
:1010100099409E40761E16403143F0BC00F026BE3B
:101020000CED00E0064900F0070208684FF6FF03E8
:10103000184040EA0220034A10430860704700004D
:101040000CED00E00000FA052DE9F0470F46050021
:1010500061D0434E306800F00700B84209D23068D2
:1010600020F0070038433060306800F00700B842D5
:1010700051D128683B4C810712D5400703D56068E1
:1010800040F4E06060602878000703D5606840F4B1
:10109000605060606068A96820F0F00008436060FC
:1010A0002878C00728D06868012810D02168022855
:1010B00010D0890700292EDA616821F0030101436D
:1010C0006160FFF775FC804641F288390DE02168C8
:1010D0008903EFE78901EDE7FFF76AFCA0EB080160
:1010E000494502D90320BDE8F0876068696800F0CF
:1010F0000C00B0EB810FEFD1306800F00700B84270
:101100000BD9306820F0070038433060306800F0B9
:101110000700B84201D00120E5E72878400705D54F
:101120006068E96820F4E0600843606028780007A0
:1011300006D56068296920F4605040EAC10060600B
:1011400000F038F86168084AC1F30311515CC840E7
:101150000649086006480068FFF706FF0020C2E75E
:101160000020024000100240502700080C00002020
:10117000040000200448054900684968044AC1F396
:101180000221515CC84070470C0000200010024052
:10119000602700080448054900684968044AC1F30B
:1011A000C221515CC84070470C0000200010024072
:1011B0006027000812A185B00FC98DE80F0014A0A8
:1011C000144A006804905168134801F00C03042B82
:1011D00010D0082B0ED1C1F38343C9031DF80300BF
:1011E0000AD5516804AAC1F34041515C0A4A5043F0
:1011F000B0FBF1F005B0704708494843FAE700003A
:1012000002030405060708090A0B0C0D0E0F101047
:10121000010200000010024000127A0000093D00A7
:101220002DE9F84F040070D02078C04DC00749D098
:101230006868C0F38100012807D06868C0F38100A6
:10124000022809D16868C00306D52868800339D50B
:1012500060680028E7D035E06068B0F5803F0BD0CB
:1012600010B1B0F5A02F11D0286820F4803028608C
:10127000286820F4802002E0286840F4803028604C
:10128000606890B1FFF794FB06460AE0286840F4D6
:1012900080202860F0E700BFFFF78AFB801B6428EE
:1012A00073D828688003F7D50CE0FFF781FB06466A
:1012B00005E000BFFFF77CFB801B6428F0D828689E
:1012C0008003F7D420789A4E80074FF001094FF041
:1012D000000839D5686810F00C0F07D06868C0F3B3
:1012E0008100022809D16868C00306D428688007F5
:1012F00014D52069012808D110E02069B0B1C6F8E2
:101300000090FFF755FB074605E00AE1FFF750FBA9
:10131000C01B0228C4D828688007F7D528686169EF
:1013200020F0F80040EAC10028600DE0C6F8008017
:10133000FFF73EFB074604E0FFF73AFBC01B02281D
:1013400023D828688007F7D4207800072CD579485F
:10135000A169D9B1C0F80090FFF72AFB074604E065
:10136000FFF726FBC01B02280FD8686A8007F7D555
:1013700071484FF4FA510068B0FBF1F0009000BFE3
:101380000098411E0091FAD20EE080E0C0F8008083
:10139000FFF70EFB074604E0FFF70AFBC01B02281D
:1013A00075D8686A8007F7D42078400760D5E86967
:1013B0000027C00008D4E86940F08050E861E8697F
:1013C000012700F0805000905C480168C90513D4E3
:1013D0000168834641F480710160FFF7E9FA8246B3
:1013E00006E000BFFFF7E4FAA0EB0A0064284ED83D
:1013F000DBF80000C005F5D5E06801280AD008B187
:10140000052813D0286A20F001002862286A20F0FD
:10141000040002E0286A40F001002862E06841F21E
:10142000883B98B1FFF7C4FA82460BE0286A40F087
:1014300004002862EEE700BFFFF7BAFAA0EB0A014A
:1014400059455AD8286A8007F6D50CE0FFF7B0FA5C
:10145000824605E0FFF7ACFAA0EB0A0159454CD8EB
:10146000286A8007F6D41FB1E86920F08050E8614F
:10147000E06988B36968C1F38101022944D0022878
:10148000C6F8608004D0FFF793FA044638E034E0F1
:10149000FFF78EFA074604E0FFF78AFAC01B02281E
:1014A0002BD828688001F7D4206AB0F5803F05D199
:1014B0006868A16820F4003008436860D4E9080136
:1014C0000843696821F4741108436860C6F86090A5
:1014D000FFF76EFA044606E025E000BFFFF768FA62
:1014E000001B022809D828688001F7D51BE000BF3F
:1014F000FFF75EFA001B022802D90320BDE8F88F2F
:1015000028688001F4D40EE00128F7D06868226AC8
:1015100000F48031914204D1616A00F47010884275
:1015200001D00120EAE70020E8E7000000100240B7
:1015300000004242800442420C0000200070004043
:1015400010B5401EB0F1807F01D3012010BD4FF0D7
:10155000E02460610F21601700F088FB0020A0618B
:1015600007202061002010BD70B5040004D094F85D
:101570003D00002510B106E0012070BD84F83C500C
:10158000204600F023F8242084F83D002068C1683C
:1015900021F40051C160204600F0C8FA20680169BA
:1015A00021F4904101612068416921F02A014161E3
:1015B0002068C16841F40051C1602564202084F88E
:1015C0003D0084F83E00002070BD000030B585B0BD
:1015D0000024009401940294039400681449884202
:1015E00024D11448816941F480418161816901F409
:1015F00080410491816941F00401816180690E4D4F
:1016000000F0040004904FF400700090022001905C
:101610000320039069462846FFF7DAF82815CDE93C
:101620000004694628460294FFF7D2F805B030BDA1
:101630000038014000100240000801402DE9F84345
:10164000044690F83D001F4616460D4620284CD112
:10165000C5B1BEB194F83C00012846D0012084F801
:101660003C004FF00008C4F84080212084F83D0081
:10167000FFF79EF9A6848146E684A068B0F5805FF6
:1016800003D004E00120BDE8F883206928B12E468C
:101690005FF0000584F83C800EE00026FAE7802128
:1016A000204600F09FFAA0B9AEB116F8010B2168F0
:1016B0004860E08C401EE084E08C4B464FF0000216
:1016C00000970028EBD14FF04001204600F08AFA45
:1016D00030B10320D7E735F8020BC0F30800E6E786
:1016E000202084F83D000020CDE70220CBE7FEE774
:1016F00001684A69D24352050FD46FF480624A618F
:10170000002140F8301F202242738173026942F0A9
:10171000040202610173012070470020704700003D
:101720002DE9F84F0446006889460B9D01689846EC
:10173000174641F4806101602068016841F48071BE
:10174000016000954FF0011B0022594620460A9B7C
:1017500000F0DEF84FF4007A40B120680068C00560
:1017600001D5C4F840A00320BDE8F88F216809F036
:10177000FE0008612B46284920460A9A00F0FCF832
:10178000F0BB20684169806900902A4620460A998A
:1017900000F070F940B1206C04283AD1206801684B
:1017A00041F40071016034E0FEB2B8F1010F09D0DC
:1017B0002168380A08612A4620460A9900F05AF939
:1017C0000028E8D1206806612A4620460A9900F0E0
:1017D00051F90028DFD12068016841F4807101606F
:1017E00000950022594620460A9B00F091F80028F7
:1017F000B3D1216809F0FF0040F00100086100E06A
:1018000007E02B46044920460A9A00F0B5F8002864
:10181000AAD00120A8E70000020001002DE9F8434A
:10182000044600680D46DDE90897016898461646AB
:1018300041F4807101604B4600224FF001112046B7
:10184000009700F065F848B120680068C00502D52F
:101850004FF4007020640320BDE8F883216805F090
:10186000FE0008613B464A461549204600F084F8D0
:1018700088B920684169806900903A464946204607
:1018800000F0F8F848B1206C042804D12068016801
:1018900041F4007101600120DEE7F5B2B8F1010FFB
:1018A00009D02168300A08613A464946204600F0CE
:1018B000E1F80028E7D1206805610020CCE70000AE
:1018C0000200010070B516460D4604460DE02046A4
:1018D000FFF70EFF08B1012070BD681C05D0FFF7AF
:1018E00067F8801BA84207D835B120684069C0431B
:1018F0004007ECD4002070BD002044F8300F2021B8
:101900006173A073216941F0200121612073E2E736
:101910002DE9F0471E4690460D460446C1F30747A1
:10192000DDF8209008E0701C06D0FFF741F8A0EB2E
:101930000900B0420FD876B12068012F18D0806915
:1019400025EA00000004000C14D000214145EAD033
:101950000020BDE8F087002044F8300F202161739B
:10196000A073216941F02001216120730120F0E77B
:101970004069E5E70121E9E72DE9F0479A469146FC
:101980000E46044600254FF02008C1F3074725E026
:1019900020684069C043400514D42068016841F4C0
:1019A0000071016021686FF480604861256384F8EC
:1019B0003D8084F83E50206C40F00400206484F8A0
:1019C0003C501FE0B9F1FF3F08D0FEF7F1FFA0EB5C
:1019D0000A0149450CD8B9F1000F09D02068012F40
:1019E00013D0806926EA00000004000C0BD0CFE77A
:1019F00044F8305F84F80D80A573206940F0200022
:101A0000206125730120BDE8F0874069EAE72DE9F0
:101A1000F041002590460E460446202717E0406915
:101A2000C043C0060CD454F8301B6FF0100048615E
:101A300044F810596777A577206A2062257717E068
:101A4000FEF7B6FFA0EB0800B04208D83EB1206810
:101A50004169C9434906E2D40020BDE8F08144F859
:101A6000305F6773A573206940F020002061257303
:101A70000120F2E770B516460D4604460DE02046FB
:101A8000FFF736FE08B1012070BD681C05D0FEF7D7
:101A90008FFF801BA84207D835B120684069C0433A
:101AA0000006ECD4002070BD002044F8300F202147
:101AB0006173A073216941F0200121612073E2E785
:101AC000FEE7FEE770477047FFF734BA30B58FB0D6
:101AD00028216846FEF73FFB14210AA8FEF73BFBCE
:101AE00001210804CDE9001000240294022504918C
:101AF000CDE907504FF4E01009906846FFF790FBDE
:101B000008B172B6FEE70F20CDE90A054FF48060F8
:101B1000CDE90C4002210AA80E94FFF795FA00289F
:101B200001D072B6FEE70FB030BD704770B5044605
:101B300000680169E26821F44051114301612169A3
:101B4000A0680843616908432168CA6841F20C63D0
:101B50009A430243CA6020684169A26921F4407136
:101B6000114341611E492068884202D1FFF712FBF0
:101B700001E0FFF7FFFA00EBC00101EB0012606823
:101B800064218000B2FBF0F3B3FBF1F36FF01806B1
:101B90007343B2FBF0F5B2FBF0F605EB830532239D
:101BA00003EB0515B5FBF1F5B6FBF1F605F0F00515
:101BB00005EB0615B2FBF0F6B2FBF0F0B0FBF1F06E
:101BC0006FF01802504306EB800003EB0010B0FBEF
:101BD000F1F0216800F00F002844886070BD00001B
:101BE000003801402DE9F041984617460E4604465C
:101BF000069D1DE0681C1BD02DB1FEF7D9FEA0EBA1
:101C00000800A84214D92068C16821F4D071C160CD
:101C10002068416921F001014161202084F83D00E4
:101C200084F83E00002084F83C000320BDE8F081E9
:101C30002068006836EA000004D00020B842D9D0FD
:101C40000020F3E70120F9E7FEE700000FB4054BA1
:101C500010B503A9044A029800F0EAF810BC5DF838
:101C600014FB000039250008100000200907090EA8
:101C7000002804DB00F1E02080F80014704700F039
:101C80000F0000F1E02080F8141D704702E008C842
:101C9000121F08C1002AFAD170477047002001E0E6
:101CA00001C1121F002AFBD1704700002DE9FF5F20
:101CB00082B00021DDE90430020DDDF840B00343BD
:101CC00018D044F61050A2F2FF3242431514119876
:101CD00001281FD0A5EB0B00401C5FEA000A4FF063
:101CE00000064E4FDFF83891B046504615D5CAF180
:101CF000000413E0119801244AA3012801D16FEADE
:101D00000B010298119AC0E90031C0E9024206B005
:101D1000BDE8F09FCBF10000DFE704460021404A18
:101D2000491842EB0450CDE9001012E0E00707D05B
:101D300032463B4640464946FEF7F1FB804689461F
:101D400032463B4610461946FEF7E9FB06460F466B
:101D50006410002CEAD1DDE90401DDE90023BAF1C9
:101D6000000F06DAFEF7DBFB42464B46FEF7D7FBD9
:101D700005E0FEF746FC42464B46FEF742FC0446B1
:101D80000E460022284BFEF7C3FC03D84FF0FF306D
:101D9000014607E00022254B20463146FEF718FB9E
:101DA000FEF79EFC102409E0002C0ADB0A22002327
:101DB000FEF749FA039B30321A55641E50EA0102BD
:101DC000F2D1641C039AC4F111031444119A012A3C
:101DD00003D0012208430DD10AE0084304D00020BB
:101DE0004FF0110B119072E7A3EB0B056D1E0DE088
:101DF0005B4504DD4FF0000205F1010504E003DA64
:101E00004FF00002A5F10105002AECD002981199CB
:101E1000C0E90231C0E9004579E700000000144044
:101E20000000F03F300000000000F0430000E03F01
:101E30002DE9FF4F95B09A46884606460025EEE10B
:101E4000252877D100242746F94A0121039400E090
:101E5000044316F8013F203B01FA03F01042F7D18A
:101E600030782A2811D06FF02F033078A0F130029B
:101E7000092A16D8039A44F0020402EB820203EB0B
:101E800042021044761C0390EFE758F8042B0392AB
:101E9000002A03DA504244F40054039044F0020450
:101EA000761C30782E2816D116F8010F44F0040461
:101EB0002A280DD06FF02F023078A0F13003092BC3
:101EC00009D807EB870302EB4303C718761CF3E737
:101ED00058F8047B761C30786C280FD006DC4C2830
:101EE00017D068280DD06A2814D104E0742810D0C7
:101EF0007A280FD10DE044F400140AE044F4801471
:101F000001E044F440147278824202D104F5801456
:101F1000761C761C307866280BD013DC582877D0D6
:101F200009DC002875D04528F6D04628F4D047288B
:101F30001AD193E118E0632835D0642879D0652858
:101F400012D18BE1702873D008DC6728F1D06928A2
:101F50006FD06E280DD06F2806D1ACE073282CD03E
:101F6000752874D0782853D05246179990476D1C25
:101F700054E1C4F30250022809D003280DD0D8F848
:101F8000001004280DD00D6008F1040846E1D8F8CF
:101F90000010EA17C1E90052F6E7D8F800100D80EA
:101FA000F2E70D70F0E718F8041B8DF80010002020
:101FB0008DF80100EB46012003E058F804BB4FF018
:101FC000FF3061074FF0000102D40DE009F101017B
:101FD0008946B9420FDA8145F8DB1BF80910002960
:101FE000F4D108E009F1010189468142FADB1BF8CE
:101FF00009100029F6D103985346A0EB09072146A2
:102000003846179A00F080FA284400EB090507E0EB
:1020100044E008E10DE01BF8010B52461799904788
:10202000B9F10109F7D2534621463846179AF2E032
:1020300039E00A21C4F302524FF0000B0091022A4A
:1020400006D058F8040BC117032A09D00AE023E090
:1020500008F1070020F00702F2E80201904605E0CF
:1020600000B2C117042A01D140B2C117002906DA13
:102070000A460021404261EB02012D2202E02205C6
:1020800004D52B228DF80420012203E0E20701D0C1
:102090002022F7E7914657E00A2100E010214FF097
:1020A000000B00910BE010214FF0000B44F00404F2
:1020B0000827009103E008204FF0000B0090C4F3C4
:1020C0000252022A05D058F8040B0021032A08D036
:1020D00008E008F1070020F00702F2E8020190464C
:1020E00003E080B2042A00D1C0B24FF000092207F9
:1020F0002AD53278702A07D0DDF800C08CF0100C99
:102100005CEA0B0C05D00EE040228DF80420012281
:1021100008E050EA010306D030238DF804308DF832
:10212000052002229146009B83F0080353EA0B032B
:102130000AD150EA010201D1620705D530228DF89B
:1021400004204FF001097F1E3278582A04D039A2AA
:102150000C920CAA02920BE03BA2F9E75B46009AB4
:10216000FEF771F80C9B9B5C029A521E0292137050
:1021700050EA0102F2D1029804A9081A00F1200BDA
:10218000600702D524F4803400E001275F4502DDBA
:10219000A7EB0B0000E0002000EB0B010090039880
:1021A0004944401A0390E00306D453462146179A47
:1021B000039800F0A9F90544002706E001A852465B
:1021C000C05D179990476D1C7F1C4F45F6DBE003FF
:1021D0000CD553462146179A039800F095F905440B
:1021E00004E030205246179990476D1C0099481E14
:1021F00000900029F5DC08E0029802995246007828
:10220000491C0291179990476D1CBBF10001ABF17D
:10221000010BF1DC5BE100F065F90544761C3078D8
:1022200000287FF40DAE19B02846BDE8F08F0000FD
:10223000092801003031323334353637383961629C
:102240006364656600000000303132333435363760
:10225000383941424344454600000000600700D43D
:10226000062708F1070020F00700F0E80223804667
:1022700003F0004C5FEA0C0001D097A009E02005B4
:1022800001D596A005E0E00701D095A001E0AFF2EE
:102290004C001390307823F0004365280CD006DC06
:1022A000452809D046281DD047287FD13BE0662825
:1022B00018D067287AD136E00021112F01DB1120D8
:1022C00000E0781CCDE9000104A90CA8FFF7EEFCA2
:1022D000DDE90D010C9A4FF0000B07F10109109296
:1022E00000914EE04FF000400097CDE9011004A9A5
:1022F0000CA8FFF7DBFCDDE90D020C9B0F994FF0FA
:10230000000B91461093009211B9791C00EB010962
:10231000B7EB090003D4C0F1FF3B07F10109A9EBBA
:102320000700019042E0012F00DA01270021112F60
:1023300001DD112000E03846CDE9000104A90CA818
:10234000FFF7B4FCDDE90D010C9A00914FF0000B92
:10235000B946109221070FD4009A4A4503DA9146F4
:1023600001E0A9F10109B9F1010F05DD109AA9F108
:102370000101515C3029F4D0B84202DA10F1040FA7
:1023800003DA0121CDE9011010E0002803DC8344C9
:10239000A9EB000102E0411C494500DD8946A0EBA4
:1023A0000B00401C01904FF000400290200705D424
:1023B0000198484502DB4FF0FF30019000208DF876
:1023C0004B0002980DF14B07B0F1004F25D00220D1
:1023D0000C902B200D90029800280CDA40420290BD
:1023E0002D200D9007E00A210298FDF716FF3031ED
:1023F000029007F8011D0C99481E0C900029F2DC90
:1024000002980028EFD1791E0D980870307800F0FE
:10241000200040F0450007F8020D11A8C01BC01DA8
:1024200002901398007800B1012000EB0901019897
:1024300001EBE071029801440398401A401E03909A
:10244000E00306D453462146179A039800F05CF83F
:1024500005441398007818B15246179990476D1C9F
:10246000E00323D553462146179A039800F04CF811
:1024700005441BE0BBF1000F07DB0098584504DD65
:102480001098179910F80B0001E017993020524668
:10249000904701980BF1010B401E05F101050190D9
:1024A00004D12E205246179990476D1CB9F10001B6
:1024B000A9F10109DEDC05E017F8010B5246179976
:1024C00090476D1C0299481E02900029F4DC534687
:1024D0002146179A03989EE62D0000002B0000006D
:1024E000200000002DE9F041044600251E46174655
:1024F000880404D405E039462020B0476D1C641ED2
:10250000F9D52846BDE8F0812DE9F04104460025C3
:102510001E469046C80301D5302700E020278804D6
:1025200004D505E041463846B0476D1C641EF9D518
:102530002846BDE8F081000013B5642301226946F6
:102540000248FFF77BF800201CBD00006800002057
:102550001FB5FEF7F7FCFFF7B9FA6A48816941F049
:1025600010018161816901F010010091816941F0E0
:1025700020018161816901F020010091816941F0B0
:1025800004018161816901F004010091816941F0D8
:102590000801816180695C4900F0080000905B4897
:1025A000002401605A49C0E901144FF48041C0E998
:1025B000034144618461C4610462FEF7FFF908B11C
:1025C00072B6FEE751485349543001604FF4E1318F
:1025D000C0E901140C21C460C0E904418461C461F4
:1025E000FEF7C2FF08B172B6FEE700274FF0010BFD
:1025F00003AD4FF0640A4FF0020900BF4FF47A7048
:10260000FEF7D4F88DF80C408DF80D4042A0FFF78E
:102610001DFBCDE9005B012356461A4690213B483D
:10262000CDF808A0FEF78EFA9DF80C103BA0FFF73E
:102630000DFBCDE900598DF80C408DF80D40C846D2
:1026400001230022902131480296FEF77BFABDF863
:102650000C0040BA4011FDF7A0FD6FF00202FDF73B
:1026600085FDFDF7BEFDFDF7A9FD02460B462EA038
:10267000FFF7ECFACDE900588DF80C408DF80D40CD
:1026800001230322902121480296FEF75BFABDF850
:102690000C0041BA27A0FFF7D9FACDE900588DF810
:1026A0000C408DF80D40012302229021174802961C
:1026B000FEF748FABDF80C0041BA20A0FFF7C6FAB1
:1026C000002F9BD1012720A0FFF7C0FA2D208DF805
:1026D0000C00B0468DF80D404E468DE86001012398
:1026E000032290210948FEF755FB8DF80C408DF828
:1026F0000D408DE860010123022290210348FEF77E
:1027000049FB7BE700100240005400401400002009
:10271000A0860100003801400D0A0000434F4E46DC
:102720003A2578200000000054454D503A25662097
:1027300000000000544F533A257820005448595364
:10274000543A2578200000007365742100000000D1
:102750000000000000000000010203040607080951
:102760000000000001020304882700080000002088
:10277000140000008C1C00089C2700081400002096
:102780009C0400009C1C00080100000010000000D8
:0C279000000000000024F4000000000025
:04000005080000ED02
:00000001FF
